:100000000206A2751200751364E4F50DF50C750B6C
:1000100080750A3E12073812072EE4F50DF50C75AF
:100020000B80750A3E1207381207ACE4F50DF50C8B
:10003000750B80750A3E7F167E0412073C12072E50
:10004000E4F50DF50C750B80750A3F7F207E0612D6
:10005000073C7F007E007D807C3F1207B4E4F50DF5
:10006000F50CF50B750A3F7F167E0412073C12074C
:10007000ACE4F50DF50C750B80750A3E7F107E0320
:1000800012073C7F007E007D007C3F1207B4E4F540
:100090000DF50CF50B750A3F7F937E0212073C129B
:1000A00007ACE4F50DF50CF50B750A3F7F707E0388
:1000B00012073CE4F50DF50C750B80750A3E7FDCEC
:1000C0007E0312073C1207ACE4F50DF50C750B80AE
:1000D000750A3E7FA47E0312073CE4F50DF50CF58E
:1000E0000B750A3F7F707E0312073C750DAB750CD4
:1000F000AA750BAA750A3E7F107E0312073C750D88
:10010000AB750CAA750BAA750A3E120738750DABB4
:10011000750CAA750BAA750A3E7F207E0612073C55
:10012000E4F50DF50CF50B750A3F7FE07E0612072E
:100130003CE4F50DF50C750B80750A3E7F757E0568
:1001400012073CE4F50DF50C750B80750A3E7F2017
:100150007E0612073C1207AC12072EE4F50DF50CD3
:10016000750B80750A3E7F167E0412073CE4F50D80
:10017000F50C750B80750A3E7F977E0412073CE4F0
:10018000F50DF50CF50B750A3F7FDC7E0312073C7D
:100190001207ACE4F50DF50CF50B750A3F7F167EE2
:1001A0000412073C1207ACE4F50DF50C750B8075D5
:1001B0000A3E7F107E0312073C7F007E007D007C9C
:1001C0003F1207B4E4F50DF50CF50B750A3F7F936C
:1001D0007E0212073C1207ACE4F50DF50CF50B7529
:1001E0000A3F7F707E0312073CE4F50DF50C750B9A
:1001F00080750A3E7FDC7E0312073C1207ACE4F5F3
:100200000DF50C750B80750A3E7FA47E0312073C2A
:10021000E4F50DF50CF50B750A3F7F707E031207B0
:100220003C750DAB750CAA750BAA750A3E7F107E46
:100230000312073C750DAB750CAA750BAA750A3E27
:10024000120738750DAB750CAA750BAA750A3E7F9F
:10025000207E0612073CE4F50DF50CF50B750A3F00
:100260007FE07E0612073CE4F50DF50C750B8075FA
:100270000A3E7F757E0512073CE4F50DF50C750B03
:1002800080750A3E7F207E0612073C1207AC1207DB
:100290002EE4F50DF50C750B80750A3E7F167E0475
:1002A00012073CE4F50DF50C750B80750A3E7F973F
:1002B0007E0412073CE4F50DF50CF50B750A3F7F43
:1002C000DC7E0312073C7F007E007D407C3F1207EE
:1002D000B4E4F50DF50C750B80750A3E7F207E06A3
:1002E00012073CE4F50DF50C750B80750A3E7FC8CE
:1002F0007E0512073CE4F50DF50C750B80750A3E82
:100300007F757E0512073CE4F50DF50CF50B750ABB
:100310003F7FDD7E0412073C12072E1207ACE4F586
:100320000DF50C750B80750A3E7F3F7E0312073C6E
:10033000E4F50DF50C750B80750A3E7F707E031297
:10034000073CE4F50DF50C750B80750A3E7F167EB3
:100350000412073C1207ACE4F50DF50C750B807523
:100360000A3E7F707E0312073CE4F50DF50C750B19
:1003700080750A3E7F167E0412073CE4F50DF50CED
:10038000750B80750A3E7F977E0412073C7F007EC6
:10039000007D007C3F1207B4E4F50DF50C750B8071
:1003A000750A3E7F207E0612073CE4F50DF50C75BC
:1003B0000B80750A3E7FC87E0512073CE4F50DF5FB
:1003C0000C750B80750A3E7F757E0512073CE4F5BF
:1003D0000DF50CF50B750A3F7FDD7E0412073CE43A
:1003E000F50DF50C750B80750A3E1207381207AC37
:1003F000E4F50DF50CF50B750A3F7F2D7E0812070D
:100400003CE4F50DF50C750B80750A3E7F2D7E08DA
:1004100012073CE4F50DF50CF50B750A3F7F2D7EB8
:100420000812073C7F007E007D807C3F0207B4EC11
:100430004D6011E8497017ED33EC3304600DE4FCB6
:10044000FFFEFD22E933E8330470F802067F12064E
:100450004A58046009E4CC24815006285009020659
:1004600089284003020686C0E0EB4A7044B9800642
:10047000D0E0FB020675EF4E701CBD8008EBFFEA72
:10048000FEE9FD80EBE98DF0A4FEE5F0020518E938
:10049000CDF9EAFEEBFFEF89F0A4FCE5F0CE89F0A0
:1004A000A42EFFE435F0CD89F0A42DFEE435F080D4
:1004B00067EF4E7005BD80D780C3EF8BF0A4ACF022
:1004C000EE8BF0A42CFCE435F0F8EF8AF0A42CE5D8
:1004D000F038FCE433CB8DF0A42CFCE5F03BF8EED7
:1004E0008AF0A42CFCE5F038F8E433CF89F0A42C92
:1004F000FCE5F038CF3400CE89F0A42FFFE5F03EC4
:10050000FEE433C98DF0A42EFEE5F039CD8AF0A4C7
:100510002FFFE5F03EFEE43DFD33D0E0FB50070B3E
:10052000BB000F020689EC2CFCEF33FFEE33FEED2F
:1005300033FD020661020689EC5D046005E859049A
:10054000700302067F12064A580460F6EC4860F217
:10055000EC7004FDFEFF22C860DB2481C85009C393
:1005600098600250060206869850CAF582E9294B27
:100570004A7005AB8202067575F0007C1A7880C35C
:10058000EF9BEE9AED99400DC3EF9BFFEE9AFEEDC7
:1005900099FDE842F0DC23ACF0D0E0FFD0E0FED0E3
:1005A000E0FDAB8220E7101BEB60BAEC2CFCEF33D4
:1005B000FFEE33FEED33FD020661E803F830E70598
:1005C000C0F075F000EF2FFFEE33FEED33FD40B8C5
:1005D00030E7C280AA75F020800E75F01080057596
:1005E000F0087D007E007F003392D530D5031206DF
:1005F00094EC334010EF33FFEE33FEED33FDEC337C
:10060000FCD5F0ED22E5F0247EA2D513CC92E7CD07
:10061000CEFF22EDD2E7CD33EC3392D524814006D4
:10062000E4FFFEFDFC22FCE4CFCECDCC24E0501153
:1006300074FF80EDC3CC13CCCD13CDCE13CECF132E
:10064000CF0470F030D5DE020694E9D2E7C933E872
:1006500033F892D5EDD2E7CD33EC33FC5002B2D56E
:1006600022EC30E7100FBF000C0EBE00080DBD00DD
:10067000040BEB6014A2D5EB13FCED92E7FD2274A2
:10068000FFFCFDFEFF22E480F8A2D574FF13FC7D81
:1006900080E480EFC3E49FFFE49EFEE49DFDE49CC4
:1006A000FC22787FE4F6D8FD7581170206E902087E
:1006B00056E493A3F8E493A34003F68001F208DF25
:1006C000F48029E493A3F85407240CC8C333C4541A
:1006D0000F4420C8834004F456800146F6DFE480CE
:1006E0000B010204081020408090084FE47E019323
:1006F00060BCA3FF543F30E509541FFEE493A360A0
:10070000010ECF54C025E060A840B8E493A3FAE4FA
:1007100093A3F8E493A3C8C582C8CAC583CAF0A34B
:10072000C8C582C8CAC583CADFE9DEE780BEE4F572
:100730000DF50CF50B750A3F7F267E058E088F0997
:1007400012081C8E0E8F0FAC08AD09EC1205DAE40E
:10075000FBFA7970784212042FC004C005C006C0AD
:1007600007AC12AD13EC1205DAA804A905AA06AB72
:1007700007D007D006D005D004120538AB0DAA0C5F
:10078000A90BA80A12042F120613EF1FAC06700162
:100790001E4C6017B2A0850E10850F11E5111511C2
:1007A000AC10700215104C60E180F1227F007E00D9
:1007B0007D807C3E8F0B8E0A8D098C08AC12AD13A8
:1007C000EC1205DAA804A905AA06AB07E4FFFE7D32
:1007D000707C42120538AB0BAA0AA909A8081204BA
:1007E0002FC004C005C006C007E4FFFE7D207C4189
:1007F000AB17AA16A915A81412042FA804A905AAB4
:1008000006AB07D007D006D005D004120538120673
:1008100013EF1FAC0670011E4C70F622AD07AC063C
:10082000EC1205DAAB17AA16A915A81412042FE4C6
:10083000FBFA7920784112042FA804A905AA06AB77
:1008400007E4FFFE7D807C3F120538120613220468
:09085000143591A2B4000200036A
:00000001FF
