S3150800000098140020510100088107000871070008AC
S315080000107D07000871030008970D0008000000001E
S315080000200000000000000000000000008F09000822
S31508000030B7050008000000000B080008790A000848
S315080000409B0D000809080008DD0A00088509000854
S31508000050C705000881090008B9050008BD0500089C
S31508000060BF050008C1050008C30500087903000894
S315080000707B0300087D0300087F030008810300084E
S31508000080B1030008B30300086D030008930D0008C8
S31508000090950D00087503000877030008C5050008D4
S315080000A0DF0A0008E50A0008E30A0008E10A000872
S315080000B0E90A0008490B00084B0B000877070008F7
S315080000C0750700087B0700087907000889090008F2
S315080000D08B0900089F0B0008A10B0008A30B00085A
S315080000E0BB05000883090008910D0008530B00089A
S315080000F0590B0008570B0008550B00086F0300083A
S31508000100C9050008870900084D0B00088D09000875
S315080001109B0B00089D0B00084F0B0008510B0008AD
S31508000120B5030008B7030008B9030008BB030008B5
S31508000130DFF818D000F0BEF800F02EF800480047A7
S31508000140B11B0008AFF3008000F05EF89814002099
S315080001500648804706480047FEE7FEE7FEE7FEE753
S31508000160FEE7FEE7FEE7FEE7FEE7FEE77D0A000894
S315080001703101000840EA01039B0703D009E008C9DA
S31508000180121F08C0042AFAD203E011F8013B00F84E
S31508000190013B521EF9D2704770B5054C054D03E078
S315080001A0206820448047241DAC42F9D170BD000068
S315080001B0441C0008481C00082DE9F041074615466E
S315080001C00E46102001F0F8FC04000AD06760C4E966
S315080001D0026500F00BF80168216004600020BDE8A4
S315080001E0F0810120FBE700F030B8000000487047B6
S315080001F0F0020020034870470248001D011F88606E
S31508000200001D7047F40200202DE9F0410646FFF76D
S31508000210EDFF8046454613E016B1E068B0420ED1C0
S3150800022020682860D4E90101D8F80070884720467C
S3150800023001F096FCD8F80000B842EBD100E025465C
S315080002402C68002CE8D1BDE8F08110B500F00DF857
S31508000250016919B100220261884701E08068804778
S31508000260AFF3008010B5AFF3008070B5FFF7C4FF99
S3150800027004680546A4B9202001F09EFC040011D0AC
S31508000280094900202C60C4E900010849A1602073CF
S31508000290206160610649A06109B100F01EF8E061BD
S315080002A0204670BDAFF3008000000000650200081C
S315080002B000000000064C074D06E0E06840F0010328
S315080002C094E8070098471034AC42F6D3FFF734FF9A
S315080002D0241C0008441C0008704710B5882001F04B
S315080002E06BFC002801D00021017010BD802902D8BE
S315080002F008B1017809B100207047012100F8081BF0
S31508000300704718B100F10802914201D000207047E9
S3150800031000210170704770B58C1810F8015B15F054
S31508000320070301D110F8013B2A1106D110F8012B59
S3150800033003E010F8016B01F8016B5B1EF9D12B077E
S3150800034005D40023521E0DD401F8013BFAE710F834
S31508000350013BCB1A921C03E013F8015B01F8015B21
S31508000360521EF9D5A142D8D3002070BD70477047F8
S3150800037000BFFEE770477047704770477047704781
S3150800038010B54FF4003000F0D9F858B1064800F01F
S315080003900DFE01221146054800F015FF4FF4003006
S315080003A000F00CF810BD0000500400205C0300208B
S315080003B070477047704770477047704700F0805124
S315080003C011B10349086001E002494860704700001E
S315080003D0040402400000024021B1026842F0010212
S315080003E0026004E002684FF6FE731A400260704726
S315080003F001684FF6FE7211400160002101604160FC
S315080004008160C1604B49884208D14A490839496820
S3150800041041F00F01474A083A51608AE045491431CC
S31508000420884208D143490839496841F0F001414AF0
S31508000430083A51607DE03F492831884208D13D4954
S315080004400839496841F470613A4A083A516070E0DF
S3150800045038493C31884208D136490839496841F457
S315080004607041344A083A516063E032495031884253
S3150800047008D130490839496841F470212D4A083AAB
S31508000480516056E02B496431884208D12949083918
S31508000490496841F47001274A083A516049E02549FC
S315080004A07831884208D123490839496841F0706192
S315080004B0204A083A51603CE01F49884206D1011F8C
S315080004C0096841F00F01021F116032E01A49143120
S315080004D0884208D11849091F096841F0F001164AEF
S315080004E0121F116025E014492831884208D11249A3
S315080004F0091F096841F470610F4A121F116018E05C
S315080005000D493C31884208D10B49091F096841F455
S315080005107041094A121F11600BE0074950318842A1
S3150800052007D10549091F096841F47021024A121FBB
S315080005301160704708000240080402400146002086
S31508000540002201F0805313B1054B1A6801E0054BF0
S315080005501A6802EA01030BB1012000E00020704787
S3150800056000040240000002401AB103680B4303600E
S3150800057002E003688B430360704710B500220268E7
S3150800058047F6F0739A430C6A8B6823430C69234336
S315080005904C6923438C692343CC6923434C6A234320
S315080005A08C6A23431A430260CB6843600B688360F6
S315080005B04B68C36010BD70477047704770477047F7
S315080005C0704770477047704770472DE9F0410246FB
S315080005D000250026002000230024002791F803C0E8
S315080005E00CF00F0591F803C00CF0100CBCF1000FCD
S315080005F003D091F802C04CEA050591F800C0BCF199
S31508000600000F31D0146800202BE04FF0010C0CFAD3
S3150800061000F3B1F800C00CEA03069E4220D183001D
S315080006204FF00F0C0CFA03F7BC4305FA03FC4CEA2F
S31508000630040491F803C0BCF1280F06D14FF0010C51
S315080006400CFA00FCC2F814C00AE091F803C0BCF129
S31508000650480F05D14FF0010C0CFA00FCC2F810C087
S31508000660401C0828D1D31460B1F800C0BCF1FF0FB4
S3150800067034DD546800202EE000F1080C4FF0010824
S3150800068008FA0CF3B1F800C00CEA03069E4221D121
S3150800069083004FF00F0C0CFA03F7BC4305FA03FC72
S315080006A04CEA040491F803C0BCF1280F05D100F107
S315080006B0080C08FA0CF8C2F8148091F803C0BCF1CB
S315080006C0480F07D100F1080C4FF0010808FA0CF89A
S315080006D0C2F81080401C0828CED35460BDE8F081CB
S315080006E0F0B50A46002300240021002500F0004644
S315080006F0B6F1004F02D11D4EF16901E01B4E71683B
S31508000700C0F3034583B200F44016B6F5401F08D17E
S3150800071021F07061154E766826F07066134F7E607C
S3150800072012E000F48016B6F5801F06D1032606FAF5
S3150800073005F4A14341F0706106E0460D360103FA5F
S3150800074006F6B14341F0706122B1460D360103FA4F
S3150800075006F6314300F00046B6F1004F02D1034ECB
S31508000760F16101E0014E7160F0BD0000000001403A
S3150800077000BFFEE7704770477047704700BFFEE747
S315080007807047000070B5002100230F22C47804B317
S31508000790154C246804F4E064C4F5E064210AC1F148
S315080007A00403CA40447804FA03F1847814402143C8
S315080007B009010E4C0678A155047804F01F0501249A
S315080007C0AC4005786D11AD0005F1E025C5F800418E
S315080007D009E0047804F01F050124AC40044D0678AE
S315080007E0761145F8264070BD0CED00E000E400E007
S315080007F080E100E002490143024A116070470000A7
S315080008000000FA050CED00E07047704729B1064A6A
S3150800081052690243044B5A6104E0034A526982430F
S31508000820014B5A61704700000010024029B1064A80
S31508000830D2690243044BDA6104E0034AD26982436F
S31508000840014BDA61704700000010024029B1064AE0
S3150800085012690243044B1A6104E0034A126982438F
S31508000860014B1A61704700000010024029B1064A80
S3150800087092690243044B9A6104E0034A92698243EF
S31508000880014B9A61704700000010024029B1064AE0
S31508000890D2680243044BDA6004E0034AD268824312
S315080008A0014BDA60704700000010024030B50021A5
S315080008B00022002400232D4D6D6805F00C0121B19E
S315080008C0042905D0082923D105E0294D056022E031
S315080008D0274D05601FE0254D6D6805F47012234D00
S315080008E06D6805F48034022505EB92421CB9214D4A
S315080008F0554305600BE01D4D6D6805F400351DB1C7
S315080009001C4D5543056002E0194D5543056002E04C
S31508000910174D056000BF00BF144D6D6805F0F00166
S315080009200909154D6B5C0568DD4045600F4D6D681E
S3150800093005F4E061090A104D6B5C4568DD40856089
S315080009400A4D6D6805F46051C90A0B4D6B5C456824
S31508000950DD40C560054D6D6805F44041890B074DBE
S315080009606B5CC568B5FBF3F5056130BD0010024048
S3150800097000127A0000093D00000000201000002047
S3150800098070477047704770477047704770477047A1
S3150800099010B500F001F810BD0CB5002001900090CC
S315080009A03348006840F480303149086000BF304859
S315080009B0006800F4003000900198401C01900098EF
S315080009C018B90198B0F5A06FF1D12948006800F46C
S315080009D0003010B10120009001E00020009000983E
S315080009E0012843D12348006840F0100021490860D7
S315080009F00846006820F0030008600846006840F0D2
S31508000A00020008601A484068194948600846406864
S31508000A1048600846406840F4806048600846406878
S31508000A2020F47C1048600846406840F4E8104860A6
S31508000A300846006840F08070086000BF0C480068EF
S31508000A4000F000700028F9D00948406820F003003B
S31508000A50074948600846406840F00200486000BF01
S31508000A600348406800F00C000828F9D10CBD0000C6
S31508000A7000100240002002407047000010B51348DD
S31508000A80006840F0010011490860084640681049AE
S31508000A9008400E494860084600680E4908400B4958
S31508000AA008600846006820F4802008600846406808
S31508000AB020F4FE0048604FF41F008860FFF768FFC7
S31508000AC04FF000600449086010BD000000100240A5
S31508000AD00000FFF8FFFFF6FE08ED00E070477047DC
S31508000AE0704770477047000010B50121880700F06D
S31508000AF043F808B311480068401C104908600846C6
S31508000B0000680F490968884212D10E480078012802
S31508000B1003D100200B49087002E00120094908703A
S31508000B2000200649086000214FF0804000F018F8C0
S31508000B300121880700F011F810BD0000EC02002022
S31508000B40E8020020E40200207047704770477047AB
S31508000B5070477047704770477047CA4302827047AC
S31508000B6021B1028842F00102028004E002884FF6B1
S31508000B70FE731A400280704730B5024600200023F3
S31508000B800024158A05EA0103958905EA010413B1CB
S31508000B900CB1012000E0002030BD70477047704757
S31508000BA07047704721B1828942F40052828104E07D
S31508000BB082894DF6FF731A40828170471AB1838A7B
S31508000BC00B43838202E0838A8B438382704700004B
S31508000BD010B504462048844209D101218803FFF74D
S31508000BE055FE00214FF48040FFF750FE32E01B48C7
S31508000BF0844209D101214804FFF728FE00214FF459
S31508000C000030FFF723FE25E01548844209D101216B
S31508000C108804FFF71BFE00214FF48020FFF716FE1D
S31508000C2018E01048844209D10121C804FFF70EFED6
S31508000C3000214FF40020FFF709FE0BE00A48844222
S31508000C4008D101210805FFF701FE00214FF48010A5
S31508000C50FFF7FCFD10BD00000038014000440040CD
S31508000C6000480040004C004000500040F0B50346E4
S31508000C70002400260025002040F66A17B94200D154
S31508000C8000BF1846C1F3421401F01F06012707FAF0
S31508000C9006F5012C01D10C3004E0022C01D11030EC
S31508000CA000E014301AB107682F43076002E00768AE
S31508000CB0AF430760F0BD00002DE9F04786B0054652
S31508000CC00E460024A24600BFA1460027B08900B1FF
S31508000CD000BF2F462C8A4CF6FF700440F088044368
S31508000CE02C82AC894EF6F3100440B088318908434B
S31508000CF0718908430443AC81AC8A4FF6FF4004402F
S31508000D00B0890443AC8201A8FFF7D0FD1F4887428B
S31508000D1002D1DDF810A001E0DDF80CA0A88900F4E6
S31508000D20004040B10AEBCA0000EB0A1031684900DE
S31508000D30B0FBF1F807E00AEBCA0000EB0A103168CD
S31508000D408900B0FBF1F86420B8FBF0F00401200933
S31508000D50642101FB1089A88900F4004040B13220C3
S31508000D6000EBC900B0FBF1F000F00700044308E00F
S31508000D70322000EB09106421B0FBF1F000F00F00FF
S31508000D8004432C8106B0BDE8F08700000038014016
S31508000D9070477047704700BFFEE770470122002181
S31508000DA0024800F010FA00BFFEE700005C030020CE
S31508000DB010B5034800F0E3F9024800F0F7F810BD53
S31508000DC05C0300201404002070B504460D46204636
S31508000DD000F034F806462946FFF718FD70BD70B5D1
S31508000DE004460D46204600F03BF806462946FFF71E
S31508000DF03DFD70BD70B504460D46204600F034F83A
S31508000E0006462946FFF732FD70BD000070B5044658
S31508000E100D460948844207D0204600F059F8064690
S31508000E202946FFF703FD06E0204600F051F806467E
S31508000E302946FFF71BFD70BD0038014001460648EC
S31508000E40814201D1012070470448814201D1022024
S31508000E50F9E70020F7E7000000000240000402401E
S31508000E60014601207047000001461248814201D11F
S31508000E70042070471048814201D10820F9E70F483D
S31508000E80814201D11020F4E70D48814201D120208A
S31508000E90EFE70C48814201D14020EAE70A4881423F
S31508000EA001D18020E5E70948814201D18015E0E7B4
S31508000EB00020DEE700080140000C01400010014058
S31508000EC00014014000180140001C014000200140A8
S31508000ED001461048814202D14FF4804070470E48BF
S31508000EE0814202D14FF40030F8E70C48814202D122
S31508000EF04FF48020F2E70A48814202D14FF40020DD
S31508000F00ECE70848814202D14FF48010E6E700205A
S31508000F10E4E7000000380140004400400048004073
S31508000F20004C00400050004010B50348FFF7BEFCD7
S31508000F300148006810BD00000803002010B50446EB
S31508000F4004F1140000F027F8A0F11404204610BD9F
S31508000F5010B5044604F1140000F01EF8A0F11404BC
S31508000F60204610BD10B54FF4E060FFF743FC10BDF6
S31508000F700160704710B50446FFF7F4FF2068FFF7D5
S31508000F8001FC10BD00B502460B4619461046FFF790
S31508000F90EFFF104600BD7047704770B504460D4612
S31508000FA03C2229462046FFF7E5F870BD70B5044691
S31508000FB02046216800F020F805460121FFF704FFC6
S31508000FC02068FFF715FA211D2068FFF7D6FA04F105
S31508000FD03000FFF7CFFF94F83420A16B2068FFF7A5
S31508000FE0C3FA204600F001F870BD10B50446012189
S31508000FF02068FFF7F1F910BD02461048814217D064
S315080010000E481430814213D00C48283081420FD044
S315080010100A483C3081420BD008485030814207D0FC
S3150800102006486430814203D004487830814202D1B0
S315080010300248083870470248FCE7000008000240EA
S315080010400004024030B58FB004460D46204600F035
S315080010502CFB04463C2229466846FFF78BF869466E
S315080010602046FFF79AFF684600F029FB20460FB096
S3150800107030BD10B50446204600F021FB0446204644
S3150800108010BD70B504460D46202229462046FFF7B6
S3150800109071F870BD30B589B004460D46204600F09B
S315080010A018FB04462022294601A8FFF763F801A980
S315080010B02046FFF7E6FF01A800F01AFB204609B014
S315080010C030BD10B50446204600F012FB0446204603
S315080010D010BD70B504460D46292229462046FFF75D
S315080010E049F870BD30B58BB004460D46204600F071
S315080010F00EFB04462C2229466846FFF73BF869464C
S315080011002046FFF7E6FF684600F00BFB20460BB0CB
S3150800111030BD10B50446204600F003FB04462046C1
S3150800112010BD03B5019941600CBD10B504462046B3
S3150800113000F005F8211D2068FFF747FA10BD10B525
S31508001140044601212068FFF755FE10BD016070476F
S3150800115037B504460D4629462046FFF7F7FF2046D1
S315080011600299FFF7DEFF20463EBD704770B504467C
S315080011700D461C2229462046FEF7FCFF70BD10B519
S31508001180044601212068FFF741FE2068FFF720FD8D
S31508001190204600F037F8211D2068FFF78DFD04F181
S315080011A01400FFF7E7FE627E618B2068FFF75EFD9D
S315080011B0204600F001F810BD10B50446012120684C
S315080011C0FFF7F0FC10BD70B504460D46164655B13E
S315080011D0012D02D0022D12D10BE032468021206863
S315080011E0FFF7ECFC0BE0324640212068FFF7E6FCEF
S315080011F005E03246C0212068FFF7E0FC00BF00BFCB
S3150800120070BD00002DE9F8430446207E00287DD1F4
S31508001210F9492068884230D1082000F091FA05463D
S31508001220F64800680246F64900902846FFF790FF00
S3150800123005462F463846FFF778FF2FB13846FFF7A1
S3150800124094FF804600F077FA082000F079FA054600
S31508001250EC4800680246EA4900902846FFF778FFFE
S3150800126005462E463046FFF760FF2EB13046FFF79B
S315080012707CFF804600F05FFAD5E0E34920688842A3
S3150800128030D1082000F05CFA0546E04800680246BE
S31508001290DB4900902846FFF75BFF05462F46384690
S315080012A0FFF743FF2FB13846FFF75FFF804600F090
S315080012B042FA082000F044FA0546D5480068024676
S315080012C0CF4900902846FFF743FF05462E4630468D
S315080012D0FFF72BFF2EB13046FFF747FF804600F099
S315080012E02AFAA0E0CB492068884232D1082000F0CB
S315080012F027FA0546C84800680246C84900902846A5
S31508001300FFF726FF05462F46384600E08DE0FFF733
S315080013100CFF2FB13846FFF728FF804600F00BFA7E
S31508001320082000F00DFA0546BD4800680246BB498C
S3150800133000902846FFF70CFF05462E463046FFF775
S31508001340F4FE2EB13046FFF710FF804600F0F3F9A1
S3150800135069E0B4492068884230D1082000F0F0F9E5
S315080013600546B14800680246B04900902846FFF78E
S31508001370EFFE05462F463846FFF7D7FE2FB138460B
S31508001380FFF7F3FE804600F0D6F9082000F0D8F9FA
S315080013900546A74800680246A44900902846FFF774
S315080013A0D7FE05462E463046FFF7BFFE2EB130461D
S315080013B0FFF7DBFE804600F0BEF934E09D49206861
S315080013C0884230D1082000F0BBF905469A480068E3
S315080013D002469A4900902846FFF7BAFE05462F4668
S315080013E03846FFF7A2FE2FB13846FFF7BEFE804605
S315080013F000F0A1F9082000F0A3F905469048006816
S3150800140002468A4900902846FFF7A2FE05462E4660
S315080014103046FFF78AFE2EB13046FFF7A6FE804615
S3150800142000F089F900BFBDE8F88301218548FFF778
S31508001430D6FC207E012834D1082000F081F9054623
S31508001440814800680246754900902846FFF780FEE5
S3150800145005462F463846FFF768FE2FB13846FFF790
S3150800146084FE804600F067F9082000F069F9054611
S31508001470764800680246694900902846FFF768FEE4
S3150800148005462E463046FFF750FE2EB13046FFF78A
S315080014906CFE804600F04FF901210420FFF720F981
S315080014A0A8E0207E022834D1082000F049F9054634
S315080014B0674800680246614900902846FFF748FEDB
S315080014C005462F463846FFF730FE2FB13846FFF758
S315080014D04CFE804600F02FF9082000F031F9054649
S315080014E05C4800680246554900902846FFF730FEDA
S315080014F005462E463046FFF718FE2EB13046FFF752
S3150800150034FE804600F017F901210820FFF7E8F8B5
S3150800151070E0207E032834D1082000F011F9054632
S315080015204D4800680246414900902846FFF710FEDC
S3150800153005462F463846FFF7F8FD2FB13846FFF720
S3150800154014FE804600F0F7F8082000F0F9F8054682
S31508001550424800680246354900902846FFF7F8FDDC
S3150800156005462E463046FFF7E0FD2EB13046FFF71A
S31508001570FCFD804600F0DFF801213948FFF7B0F896
S3150800158038E0207E042835D1082000F0D9F8054631
S31508001590344800680246294900902846FFF7D8FDD6
S315080015A005462F463846FFF7C0FD2FB13846FFF7E8
S315080015B0DCFD804600F0BFF8082000F0C1F80546BB
S315080015C02948006802461D4900902846FFF7C0FDD5
S315080015D005462E463046FFF7A8FD2EB13046FFF7E2
S315080015E0C4FD804600F0A7F801211D482030FFF70A
S315080015F077F800BF00BF16E7003801401400002046
S315080016000008014018000020004400402400002083
S31508001610280000200048004034000020000C01404B
S3150800162038000020004C00404C000020001001400B
S3150800163050000020005000405400002000140140D3
S3150800164058000020000001401C0000202000002057
S315080016502C000020300000203C0000204000002024
S3150800166010001400440000204800002030B587B060
S3150800167004460D462046FFF761FC04461C2229460F
S315080016806846FEF777FD69462046FFF76FFD684610
S31508001690FFF75EFC204607B030BD10B5044620466D
S315080016A0FFF756FC0446204610BD10B5044604F163
S315080016B03000FFF770FCA0F13004204610BD10B5CD
S315080016C0044604F13000FFF767FCA0F13004204619
S315080016D010BD10B5044604F11400FFF75CFCA0F138
S315080016E01404001DFFF757FCA0F11804204610BD8E
S315080016F010B5044604F11800FFF74EFCA0F11804D3
S31508001700001FFFF749FCA0F11404204610BD10B5D0
S31508001710044604F12000FFF73EFCA0F12004204611
S3150800172010BD10B5044604F12000FFF735FCA0F102
S315080017302004204610BD10B500F012FA10BD0000B6
S3150800174010B5040007D1012405E0FEF753FD006833
S3150800175000B904488047204600F02EFA0028F4D045
S3150800176010BD0000E701000802E008C8121F08C102
S31508001770002AFAD170477047002001E001C1121F04
S31508001780002AFBD17047000030B5DDB0BD48BE4A1F
S3150800179092E81A00D268051D1AC50261BB491430C1
S315080017A0FFF7F0FBBA4905F10800FFF7EBFBB94A6A
S315080017B0B949B448FEF700FDB848B94C1ECC001D1F
S315080017C01EC0B849FFF7DEFBB749B4481830FFF723
S315080017D0D9FBB04AB049B148FEF7EEFC2022A94928
S315080017E055A8FEF7C7FC55A9B048FFF753FC0546B0
S315080017F0A84AAF49FEF7E0FC044655A8FFF778FF6C
S315080018002022A6494DA8FEF7B5FC4DA9A948FFF721
S3150800181041FC05469F4AA649FEF7CEFC04464DA85C
S31508001820FFF766FFA44AA54CD4E90030D4E90214B0
S31508001830C2E90314C2E90130A14902F11400FFF715
S31508001840A1FB944A9F499C48FEF7B6FC9E499F4CCB
S31508001850D4E90023D4E90204C1E90304C1E9012358
S315080018609B4999481430FFF78DFB8A4A9549964853
S31508001870FEF7A2FC9748984C1ECC001D1EC097493F
S31508001880FFF780FB834A8F499248FEF795FC944BF5
S31508001890944C17CC1B1D17C393491846FFF772FBC8
S315080018A07C4A88498E48FEF787FC904A904CD4E9D2
S315080018B00030D4E90214C2E90314C2E901308D49A3
S315080018C002F11400FFF75EFB724A7E498748FEF76D
S315080018D073FC1C22784946A8FEF74CFC46A98648A4
S315080018E0FFF7C4FE05466B4A8449FEF765FC0446C5
S315080018F046A8FFF72DFB1C2273493FA8FEF73AFCC2
S315080019003FA97F48FFF7B2FE0546624A7B49FEF7C4
S3150800191053FC04463FA8FFF71BFB1C226D4938A859
S31508001920FEF728FC38A97748FFF7A0FE0546594A6E
S315080019307249FEF741FC044638A8FFF709FB1C224A
S31508001940674931A8FEF716FC31A96F48FFF78EFEE6
S315080019500546504A6949FEF72FFC044631A8FFF7A9
S31508001960F7FA1C2261492AA8FEF704FC2AA9674847
S31508001970FFF77CFE0546474A6049FEF71DFC04460C
S315080019802AA8FFF7E5FAFFF7CFFA6149B0FBF1F0AD
S315080019906049088060496148FFF7F4FA04463D4A01
S315080019A05F49FEF709FC5F485A490A6842604A6877
S315080019B082600989818110225B490E30FEF7DAFBC5
S315080019C05848564909680162324A5849FEF7F4FBF5
S315080019D02C2254491FA8FEF7CDFB1FA95448FFF730
S315080019E081FB05462B4A5349FEF7E6FB04461FA82A
S315080019F0FFF797FE2C2250495048FEF7BBFB50498B
S31508001A004E482C30FFF7BEFA224A4E494B48001F73
S31508001A10FEF7D2FB2C224C494C48FEF7ABFB4C494F
S31508001A204A482C30FFF7AEFA1A4A46494748001F7B
S31508001A30FEF7C2FB3C224149091F10A8FEF79AFB94
S31508001A4010A94448FFF7FEFA0546124A4249FEF72E
S31508001A50B3FB044610A8FFF732FE3C223B49091F98
S31508001A6001A8FEF787FB01A93C48FFF7EBFA0546F4
S31508001A70084A3949FEF7A0FB044601A8FFF71FFEEE
S31508001A805DB030BD8C0000205C0000207C0000208A
S31508001A908000002000000008F1160008AC000020B5
S31508001AA06C00002084000020880000201C03002011
S31508001AB0C31000083C03002030010020CC000020A1
S31508001AC01C010020510F00084C010020DC000020FA
S31508001AD02001002068010020EC00002024010020DD
S31508001AE084010020FC00002028010020A00100201D
S31508001AF00C0100202C0100205C0300209B16000826
S31508001B007803002094030020B0030020CC030020B3
S31508001B1040420F00BC010020D6010020DC01002055
S31508001B20990F0008E0010020C601002023170008CD
S31508001B30E803002013110008140200207002002098
S31508001B400C020020BF16000840020020AC0200204C
S31508001B50100200201404002073100008500400200E
S31508001B6010B5002821D0114B0022001F196803E088
S31508001B70814203D80A4649680029F9D152B1136847
S31508001B80841A9C4204D1006818441060104602E08A
S31508001B90506000E0186039B102680B1A934203D10D
S31508001BA00B681A4402604968416010BD00030020B2
S31508001BB0FFF7FEF8FFF7F2F8F0B50B30154D20F0F9
S31508001BC007010024144A0FE003688B420BD38B42AB
S31508001BD005D95E1A43184768C3E9006700E04368F9
S31508001BE0136002C004E0021D10680028ECD12046EC
S31508001BF0002802D1286808B10020F0BD064A074827
S31508001C001060074A121A22F00702C0E900240120D0
S31508001C102860D7E704030020000300209C04002066
S31508001C20980C0020481C000800000020080300004B
S31508001C3016030008381D000808030020901100004C
S31508001C407817000845FBFFFF412D01020304041025
S31508001C500906070809020406081404030415020302
S31508001C601880140304401C031808081A0408190CE1
S31508001C701B042008111A08209A0408193C118A0125
S31508001C8010192C12041A1040431A062340B01204E5
S31508001C902240E91012201406011F14070122140815
S31508001CA001211309012A5416011912070A1D582081
S31508001CB073C201620C093D10222513012614010185
S31508001CC02714020134140301351304010B153801D6
S31508001CD0841325050A1644A0191C0A19481C0A1952
S31508001CE04C1C0A19501C3143E703126029BA6AF4DE
S31508001CF0BF11121C7A050C091640A13A013E2112A1
S31508001D000F140A010E1C0B0104E4138C0442207202
S31508001D100AB2803919390521692C0A15102C89311E
S31508001D202112580A1F028C09109C21320E0A3144CE
S30D08001D303C41293C49DE011E75
S70508000131C0
